:100000000C942A000C9434000C9434000C943400AA
:100010000C9434000C9434000C9434000C94340090
:100020000C9434000C9434000C9434000C94340080
:100030000C9434000C9434000C9434000C94340070
:100040000C9434000C9434000C9434000C94340060
:100050000C94340011241FBECFE5D8E0DEBFCDBF25
:100060000E94E5000C942C010C9400004130A1F595
:10007000813089F028F08230C9F0833011F1089581
:100080002AB381E090E002C0880F991F6A95E2F7D9
:10009000822B8ABB089527B381E090E002C0880FCD
:1000A000991F6A95E2F7822B87BB089524B381E0FC
:1000B00090E002C0880F991F6A95E2F7822B84BBFB
:1000C000089521B381E090E002C0880F991F6A95DE
:1000D000E2F7822B81BB0895411137C0813091F046
:1000E00028F08230D9F0833029F108952AB381E0D5
:1000F00090E002C0880F991F6A95E2F780958223ED
:100100008ABB089527B381E090E002C0880F991F51
:100110006A95E2F78095822387BB089524B381E036
:1001200090E002C0880F991F6A95E2F780958223BC
:1001300084BB089521B381E090E002C0880F991F2D
:100140006A95E2F78095822381BB0895813089F01A
:1001500028F08230C9F0833011F108952BB381E08B
:1001600090E002C0880F991F6A95E2F782278BBB47
:10017000089528B381E090E002C0880F991F6A9526
:10018000E2F7822788BB089525B381E090E002C0A2
:10019000880F991F6A95E2F7822785BB089522B3DD
:1001A00081E090E002C0880F991F6A95E2F78227EC
:1001B00082BB0895862F672F41E00E943600089584
:1001C000862F672F0E94A6000895F12C00E011E011
:1001D000912CAA24A394BB24B394C12C6894DD244D
:1001E000D1F8EE24E39460E070E081E00E94DA0050
:1001F00060E071E081E00E94DA0060E072E081E09E
:100200000E94DA00C1E06F2D702F812F0E94E00064
:10021000DC2FC0FD05C0692D7A2D8B2D0E94E000DA
:1002200086E5C802812D1124C7FD8395982F990F6B
:10023000890FC81305C06C2D7D2D8E2D0E94E00006
:10024000C1E0CD0F2FE38DE093E02150804090403E
:0C025000E1F700C00000D7CFF894FFCF0A
:00000001FF
